H010120130330      00                                                                                A57128EMCBK20130890160207001
DEMCBK9490000016371700000000005    E1301100302     2013-03-29 0000000000000100.00EUR4763001027846316695000000000317894872049668357   2012-12-22 0000000000000100.00EUR2012-12-24 0000000000010378.80                        000004223 9492300009 0000000000010202.36EUR2013-01-21FCB                    13        QEBDMO    EUR 0000000000000100.00EUR001027846316695                                   P37CLO20556KWF01X9
DEMCBK9490000016371700000000007    E1303300169     2013-03-29 0000000000000222.00EUR4763001043979038477000000000304133872049668357   2012-12-22 0000000000000222.00EUR2012-12-24 0000000000004840.60                        000004761 9492300009 0000000000004758.31EUR2013-01-21FCB                    13        SJIWSO    EUR 0000000000000222.00EUR001043979038477                                   P37CLO20556KWF03R8
DEMCBK9490000016371700000000007    E1303300170     2013-03-29 0000000000000130.00EUR4763001043968413475000000000304133872049668357   2012-12-22 0000000000000130.00EUR2012-12-24 0000000000004840.60                        000004761 9492300009 0000000000004758.31EUR2013-01-21FCB                    13        SJGGTR    EUR 0000000000000130.00EUR001043968413475                                   P37CLO20556KWF03QC
DEMCBK9490000016370200000000003    E1305300180     2013-03-29 0000000000000549.00EUR4516001052697264471000000000600193872049668009   2013-01-09 0000000000000549.00EUR2013-01-10 0000000000038123.00                        000983135 9492300009 0000000000037474.91EUR2013-02-07FCB                    13        QLFDMW    EUR 0000000000000549.00EUR001052697264471                                   P28DAA20552QD400PF
DEMCBK9490000016370200000000007    E1308000192     2013-03-29 0000000000000198.00EUR4540001075168017474000000000661691872049668054   2013-02-23 0000000000000198.00EUR2013-02-25 0000000000012892.70                        000652759 9492300009 0000000000012673.53EUR2013-03-25FCB                    13        STVBOJ    EUR 0000000000000198.00EUR001075168017474                                   P29DBP20605A1K031X
DEMCBK9490000016370200000000008    E1308100176     2013-03-29 0000000000000669.00EUR4540001080666351474000000000168205872049668066   2013-03-07 0000000000000669.00EUR2013-03-08 0000000000095261.60                        000969977 9492300009 0000000000093642.15EUR2013-04-05FCB                    13        SRBHZH    EUR 0000000000000669.00EUR001080666351474                                   P27DC820823OVM0360
DEMCBK9490000016370200000000003    E1308200133     2013-03-29 0000000000000746.00EUR4540001062874060691000000000203484872049668068   2013-03-09 0000000000000746.00EUR2013-03-11 0000000000016936.00                        000572042 9492300009 0000000000016648.09EUR2013-04-08FCB                    13        TJOJMI    EUR 0000000000000746.00EUR001062874060691                                   P28DCB21138WDK06JK
DEMCBK9490000016370200000000005    E1308200134     2013-03-29 0000000000000466.31EUR4513001080222357478000000000151998872049668065   2013-03-06 0000000000000516.00EUR2013-03-07 0000000000030139.80                        000705876 9492300009 0000000000029627.42EUR2013-04-04FCB                    13        TWGKAR    EUR 0000000000000516.00EUR001080222357478                                   P37DC7209011OW03ZY
DEMCBK9490000016370200000000005    E1308600190     2013-03-29 0000000000000249.01EUR4513001083795154470000000000279842872049668073   2013-03-14 0000000000000255.00EUR2013-03-15 0000000000047155.60                        000423597 9492300009 0000000000046353.96EUR2013-04-12FCB                    13        RKCVDU    EUR 0000000000000255.00EUR001083795154470                                   P27DCF20926OE701UT
DEMCBK9490000016370200000000000    E1308600191     2013-03-29 0000000000000089.00EUR4513001084294315471000000000293916872049668074   2013-03-15 0000000000000213.00EUR2013-03-18 0000000000090966.00                        000979470 9492300009 0000000000089419.58EUR2013-04-15FCB                    13        QGEETG    EUR 0000000000000213.00EUR001084294315471                                   P27DCI21009S65011S
DEMCBK9490000089373200000000007    E1308900118     2013-03-29 0000000000000113.00EUR4763001063888521694000000000244163873028778071   2013-03-12 0000000000000113.00EUR2013-03-13 0000000000001046.00                        000980716 9492300009 0000000000001028.22EUR2013-04-10FCB                    13        TQFLKH    EUR 0000000000000113.00EUR001063888521694                                   P37DCD20932I9600CN
DEMCBK9490000016371700000000000    E1308900122     2013-03-29 0000000000000089.00EUR4763001036589503690000000000637179872049668011   2013-01-11 0000000000000089.00EUR2013-01-14 0000000000017581.10                        000786295 9492300009 0000000000017282.22EUR2013-02-11FCB                    13        TTRSJU    EUR 0000000000000089.00EUR001036589503690                                   P29DAE20629PUT05P3
DEMCBK9490000016377200000000007    E1308900134     2013-03-29 0000000000000276.00EUR4763001082646055472000000000236105872049668071   2013-03-12 0000000000000276.00EUR2013-03-12 0000000000006952.90                        000772214 9492300009 0000000000006834.70EUR2013-04-09FCB                    13        RNEDEV    EUR 0000000000000276.00EUR001082646055472                                   P36DCC20845EV004KM
DEMCBK9490000016371700000000003    E1308900135     2013-03-29 0000000000000128.00EUR4763001059704269476000000000134000872049668023   2013-01-23 0000000000000128.00EUR2013-01-24 0000000000031472.30                        000714487 9492300009 0000000000030937.27EUR2013-02-21FCB                    13        SSISNB    EUR 0000000000000128.00EUR001059704269476                                   P36DAO20542Y2A00OI
DEMCBK9490000016377200000000007    E1308900136     2013-03-29 0000000000000184.00EUR4763001082648019476000000000236105872049668071   2013-03-12 0000000000000184.00EUR2013-03-12 0000000000006952.90                        000772214 9492300009 0000000000006834.70EUR2013-04-09FCB                    13        RNIPNZ    EUR 0000000000000184.00EUR001082648019476                                   P36DCC20845EV004KP
DEMCBK9490000016371700000000003    E1308900138     2013-03-29 0000000000000107.00EUR4763001059701235470000000000134000872049668023   2013-01-23 0000000000000107.00EUR2013-01-24 0000000000031472.30                        000714487 9492300009 0000000000030937.27EUR2013-02-21FCB                    13        SRCIUZ    EUR 0000000000000107.00EUR001059701235470                                   P36DAO20542Y2A00OA
DEMCBK9490000016374100000000007    E1308900141     2013-03-29 0000000000000090.00EUR4540001082192472477000000000223433872049668070   2013-03-11 0000000000000090.00EUR2013-03-11 0000000000006203.00                        000572847 9492300009 0000000000006097.55EUR2013-04-08FCB                    13        SKGJNK    EUR 0000000000000090.00EUR001082192472477                                   P28DCB21138WDK0A95
DEMCBK9490000016374100000000009    E1308900142     2013-03-29 0000000000000146.00EUR4540001081894299477000000000208543872049668069   2013-03-10 0000000000000146.00EUR2013-03-11 0000000000051053.70                        000572231 9492300009 0000000000050185.79EUR2013-04-08FCB                    13        QYDBNO    EUR 0000000000000146.00EUR001081894299477                                   P28DCB21138WDK07H2
DEMCBK9490000016374100000000007    E1308900147     2013-03-29 0000000000000133.00EUR4540001060681227693000000000132758872049668064   2013-03-05 0000000000000133.00EUR2013-03-06 0000000000108631.60                        000369054 9492300009 0000000000106784.86EUR2013-04-03FCB                    13        SLSTBG    EUR 0000000000000133.00EUR001060681227693                                   P37DC6209197AB02DL
DEMCBK9490000016374100000000007    E1308900148     2013-03-29 0000000000000230.00EUR4540001074203991470000000000637342872049668053   2013-02-22 0000000000000230.00EUR2013-02-25 0000000000089453.90                        000654099 9492300009 0000000000087933.18EUR2013-03-25FCB                    13        RXHYFJ    EUR 0000000000000230.00EUR001074203991470                                   P29DBP20605A1K07Z2
DEMCBK9490000016374100000000007    E1308900149     2013-03-29 0000000000000210.00EUR4540001054729564696000000000610959872049668051   2013-02-20 0000000000000210.00EUR2013-02-21 0000000000038961.50                        000773073 9492300009 0000000000038299.15EUR2013-03-21FCB                    13        RFHCGA    EUR 0000000000000210.00EUR001054729564696                                   P28DBL206184JE00R4
T010120130330      0000000000000023000000023                                                         A57128EMCBK20130890160207001
